:100000000C9482070C94C9070C94C9070C94C90777
:100010000C94C9070C94C9070C94C9070C94C90720
:100020000C94C9070C94C9070C9474280C944729A4
:100030000C94801F0C94C9070C94C9070C94C90731
:100040000C94C9070C94C9070C94C9070C94C907F0
:100050000C94C9070C94E11F0C94C9070C94C907B0
:100060000C94C9070C94C9070C94C9070C94C907D0
:100070000C94C9070C94C9070C94C9070C94C907C0
:100080000C94C9070C94C9070C94C9070C94C907B0
:100090000C94C9070C94C9070C94C9070C94C907A0
:1000A0000C94C9070C94C9070C94C90729001E00B9
:1000B0001F0020002100220023002400250026002C
:1000C00027002D002E002A0049004A004B002B007B
:1000D00014001A000800150017001C0018000C007E
:1000E000120013002F00300031004C004D004E0074
:1000F000390004001600070009000A000B000D007B
:100100000E000F0033003400280000000000000043
:100110000000E1001D001B00060019000500110091
:100120001000360037003800E10000000000000039
:1001300052000000E000E300E200000000002C009C
:10014000000000000000E200E30076000000E00094
:10015000500051004F0035003A003B003C003D008C
:100160003E003F0040004100420043004400450083
:100170000070460047004800010001000100010036
:10018000A900010001000100A500A600A7000100D0
:100190000100010001000100010001000100010057
:1001A0000100AA000100010001000100010001009E
:1001B0000100010000000100010001000100010038
:1001C00001000100A800AC00AE00AD00AB000100D2
:1001D0000100010000000000010001000100010019
:1001E000010001000000000001000000000000000C
:1001F00001000100010000000100010001000100F8
:1002000035021E021F0220022102220223022402C2
:100210002502260227022D022E0254005500560008
:100220005700010001000100010001000100010070
:1002300001000100010001002F02300201005F00F7
:1002400060006100010001000100010001000100E7
:10025000010001000100010033023402010000002E
:100260005C005D005E000100010001000100010072
:1002700001000100010036023702380201000000CF
:10028000000059005A005B0001000100010000005D
:10029000000001000000000000000100010001005A
:1002A000000001006200630058000100010001002D
:1002B0000100010001000100010001000100010036
:1002C0000100010001000100010001000100010026
:1002D0000100010001000100010001000100010016
:1002E0000100010001000100010001000100010006
:1002F00001000100010001000100010001000100F6
:1003000001000100010001000000010001000100E6
:1003100001000100010001000100010001000100D5
:1003200001000100010001000000000001000100C7
:1003300001000100010001000000000001000000B8
:1003400000000000010001000100000001000100A8
:100350000100010001000100010001000100010095
:100360000100010001000100010001000100010085
:100370000100010001000100010001000100010075
:100380000100010001000100010001000100010065
:100390000100010001000100010001000100010055
:1003A0000100010001000100010001000100010045
:1003B0000100000001000100010001000100010036
:1003C0000100010001000100010001000100010025
:1003D0000100000000000100010001000100010017
:1003E000010000000000010000000000000001000A
:1003F00001000100000001000100010001000100F6
:1004000001000100010001000100010001000100E4
:1004100001000100010001000100010001000100D4
:1004200001000100010001000100010001000100C4
:1004300001000100010001000100010001000100B4
:1004400001000100010001000100010001000100A4
:100450000100010001000100010001000000010095
:100460000100010001000100010001000100010084
:100470000100010001000100010001000000000076
:100480000100010001000100010001000000000066
:100490000100000000000000010001000100000058
:1004A0000100010001000100010001000100010044
:1004B0000100010001000100010001000100010034
:1004C0000100010001000100010001000100010024
:1004D0000100010001000100010001000100010014
:1004E0000100010001000100010001000100010004
:1004F00001000100010001000100010001000100F4
:1005000001000100010000000100010001000100E4
:1005100001000100010001000100010001000100D3
:1005200001000100010000000000010001000100C5
:1005300001000100010000000000010000000000B7
:1005400000000100010001000000010001000100A5
:100550000100010001000100010001000100010093
:100560000100010001000100010001000100010083
:100570000100010001000100010001000100010073
:100580000100010001000100010001000100010063
:100590000100010001000100010001000100010053
:1005A0000100010001000100010001000100010043
:1005B0000000010001000100010001000100010034
:1005C0000100010001000100010001000100010023
:1005D0000000000001000100010001000100010015
:1005E0000000000001000000000000000100010008
:1005F00001000000010001000100010001000100F4
:1006000001000100010001000100010001000100E2
:1006100001000100010001000100010001000100D2
:1006200001000100010001000100010001000100C2
:1006300001000100010001000100010001000100B2
:1006400001000100010001000100010001000100A2
:100650000100010001000100010000000100010093
:100660000100010001000100010001000100010082
:100670000100010001000100010000000000010074
:100680000100010001000100010000000000010064
:100690000000000000000100010001000000010056
:1006A0000100010001000100010001000100010042
:1006B0000100010001000100010001000100010032
:1006C0000100010001000100010001000100010022
:1006D0000100010001000100010001000100010012
:1006E0000100010001000100010001000100010002
:1006F00001000100010001000100010001000100F2
:1007000001000100000001000100010001000100E2
:1007100001000100010001000100010001000100D1
:1007200001000100000000000100010001000100C3
:1007300001000100000000000100000000000000B6
:1007400001000100010000000100010001000100A2
:100750000100010001000100010001000100010091
:100760000100010001000100010001000100010081
:100770000100010001000100010001000100010071
:100780000100010001000100010001000100010061
:100790000100010001000100010001000100010051
:1007A0000100010001000100010001000100000042
:1007B0000100010001000100010001000100010031
:1007C0000100010001000100010001000100000022
:1007D0000000010001000100010001000100000013
:1007E0000000010000000000000001000100010005
:1007F00000000100010001000100010001000100F2
:1008000001000100010001000100010001000100E0
:1008100001000100010001000100010001000100D0
:1008200001000100010001000100010001000100C0
:1008300001000100010001000100010001000100B0
:1008400001000100010001000100010001000100A0
:100850000100010001000100000001000100010091
:100860000100010001000100010001000100010080
:100870000100010001000100000000000100010072
:100880000100010001000100000000000100000063
:100890000000000001000100010000000100010053
:1008A0000100010001000100010001000100010040
:1008B0000100010001000100010001000100010030
:1008C0000100010001000100010001000100010020
:1008D0000100010001000100010001000100010010
:1008E0000100010001000100010001000100010000
:1008F00001000100010001000100010001000100F0
:1009000001000000010001000100010001000100E0
:1009100001000100010001000100010001000100CF
:1009200001000000000001000100010001000100C1
:1009300001000000000001000000000000000100B4
:1009400001000100000001000100010001000100A0
:10095000010001000100010001000100010001008F
:10096000010001000100010001000100010001007F
:10097000010001000100010001000100010001006F
:10098000010001000100010001000100010001005F
:10099000010001000100010001000100010001004F
:1009A0000100010001000100010001000000010040
:1009B000010001000100010001000100010001002F
:1009C0000100010001000100010001000000000021
:1009D0000100010001000100010001000000000011
:1009E0000100000000000000010001000100000003
:1009F00001000100010001000100010001000100EF
:100A000001000100010001000100010001000100DE
:100A100001000100010001000100010001000100CE
:100A200001000100010001000100010001000100BE
:100A300001000100010001000100010001000100AE
:100A4000010001000100010001000100010001009E
:100A5000010001000100000001000100010001008F
:100A6000010001000100010001000100010001007E
:100A70000100010001000000000001000100010070
:100A80000100010001000000000001000000000062
:100A90000000010001000100000001000100010050
:100AA000010001000100010001000100010001003E
:100AB000010001000100010001000100010001002E
:100AC000010001000100010001000100010001001E
:100AD000010001000100010001000100010001000E
:100AE00001000100010001000100010001000100FE
:100AF00001000100010001000100010001000100EE
:100B000000000100010001000100010001000100DE
:100B100001000100010001000100010001000100CD
:100B200000000000010001000100010001000100BF
:100B300000000000010000000000000001000100B2
:100B40000100000001000100010001006432146492
:100B50003214783C1E1E140A050000000001010139
:100B60000202030405050607090A0B0C0E0F1112F9
:100B7000141517191B1D1F212325282A2C2F31344A
:100B800036393B3E414346494C4F5255585A5D61B8
:100B900064676A6D707376797C7F8386898C8F92A7
:100BA00095989B9EA2A5A7AAADB0B3B6B9BCBEC18D
:100BB000C4C6C9CBCED0D3D5D7DADCDEE0E2E4E6DA
:100BC000E8EAEBEDEEF0F1F3F4F5F6F8F9FAFAFBFA
:100BD000FCFDFDFEFEFEFFFFFFFFFFFFFFFEFEFE32
:100BE000FDFDFCFBFAFAF9F8F6F5F4F3F1F0EEEDA1
:100BF000EBEAE8E6E4E2E0DEDCDAD7D5D3D0CECB30
:100C0000C9C6C4C1BEBCB9B6B3B0ADAAA7A5A29EA1
:100C10009B9895928F8C898683807C797673706D92
:100C20006A6764615D5A5855524F4C494643413E8C
:100C30003B393634312F2C2A282523211F1D1B191F
:100C400017151412110F0E0C0B0A090706050504DF
:100C50000302020101010000000000000000010188
:100C6000010101010101010202020202020202026B
:100C7000030303030303030304040404040405053A
:100C800005050506060606060707070708080808FB
:100C90000909090A0A0A0A0B0B0B0C0C0C0D0D0DA5
:100CA0000E0E0F0F0F101011111112121313141436
:100CB000151516161717181819191A1A1B1C1C1DAA
:100CC0001D1E1F1F20202122222324252526272701
:100CD00028292A2B2B2C2D2E2F2F3031323334352F
:100CE00036363738393A3B3C3D3E3F40414243443B
:100CF000464748494A4B4C4D4F5051525355565711
:100D0000585A5B5C5E5F606263646667696A6C6DBB
:100D10006E707173747678797B7C7E808183848633
:100D2000888A8B8D8F91929496989A9B9D9FA1A370
:100D3000A5A7A9ABADAFB1B3B5B7B9BBBDBFC1C472
:100D4000C6C8CACCCFD1D3D6D8DADCDFE1E4E6E836
:100D5000EBEDF0F2F5F7FAFCFF12036B006500799A
:100D60000062006F006100720064000000160371F1
:100D7000006D006B006200750069006C0064006526
:100D800000720000000403090409026D0004010060
:100D9000A0FA09040000010301010009211101006A
:100DA000012240000705810308000A09040100012F
:100DB00003010200092111010001224D00070582F3
:100DC0000308000A090402000103000000092111C0
:100DD0000100012236000705830308000A09040305
:100DE0000001030000000921110100012239000760
:100DF0000584032000011201100100000008EDFE2F
:100E0000606001000102000105010906A10105075A
:100E100019E029E7150025019508750181020508EB
:100E20001901290595057501910295017503910137
:100E30000507190029F71500250195F875018102AC
:100E4000C005010980A10185021601002603001AD0
:100E500081002A8300751095018100C0050C0901ED
:100E6000A1018503160100269C021A01002A9C029A
:100E7000751095018100C005010902A1010901A1B8
:100E80000005091901290515002501950575018140
:100E9000029501750381010501093009311581258C
:100EA0007F95027508810609381581257F950175A2
:100EB000088106050C0A38021581257F9501750801
:100EC0008106C0C005010906A101050719E029E74F
:100ED00015002501950875018102950175088101AC
:100EE00005081901290595057501910295017503FC
:100EF00091010507190029FF150026FF00950675C9
:100F0000088100C011241FBECFEFDAE0DEBFCDBFE5
:100F100004B603FE27C08091BE039091BF03A09149
:100F2000C003B091C1038730904BA740B04BD1F4C0
:100F30001092BE031092BF031092C0031092C1031F
:100F400014BE84B7877F84BF0FB6F894A8958091AC
:100F50006000886180936000109260000FBEE0E046
:100F6000F8E3099511E0A0E0B1E0EEE9F9E502C08F
:100F700005900D92AE33B107D9F723E0AEE3B1E0AF
:100F800001C01D92AE3BB207E1F70E94C8250C9448
:100F9000982C0C94000090E080E008950895089546
:100FA00081E00895089581E008950C94D0070E948F
:100FB000BA172FEF84E39CE0215080409040E1F786
:100FC00000C000000C940420EF92FF920F931F9337
:100FD000CF93DF937C01DC010D911C9111978091DF
:100FE000AD01811143C012968C918823D1F1C801C3
:100FF0000E943F1DC82F682FC8010E94E81CB8013D
:101000008C2F0E944F09EC01B7010E94D50788235D
:1010100009F468C0B701CE010E94580B882309F477
:1010200061C0CE33B0E7DB0770F4C433E0E7DE071E
:1010300010F5C130F0E7DF0709F45CC050F5C115C9
:10104000D04709F44AC081E0809340018093410178
:10105000C701DF91CF911F910F91FF90EF900C94FA
:10106000D307C8010E94161DC82FC9CFC8010E940E
:101070003F1DB801C6CFFE01E553F047D7011296D8
:101080008C91E930F10508F040C0E656F34D0C9420
:101090004A2CCE01825090474397A8F6F7018281EF
:1010A0008823B1F20E94011F811102C00E94E01E3C
:1010B0000E941E1F90E09093B0038093AF03FE0147
:1010C000E350F0478091AF038160E231F10508F011
:1010D00047C0ED55F34D0C944A2CF70182818111E4
:1010E0000E94D70780E0DF91CF911F910F91FF9071
:1010F000EF900895D70112968C91882399F38091EF
:101100004A02816080934A02EDCF882359F30E94FE
:101110000010E8CF882331F30E94F60FE3CF882335
:1011200009F30E94D30EDECF8823E1F20E94EB0E7A
:10113000D9CF8823B9F20E940A0FD4CF882391F225
:101140000E94220FCFCF882369F20E943A0FCACFA4
:10115000882341F20E94520FC5CF8091AF03826075
:101160008093AF038091AF030E94221F0E94BA17A1
:10117000B9CF8091AF038460F3CF8091AF038860D3
:10118000EFCF8091AF038061EBCF8091AF0380629E
:10119000E7CF8091AF038064E3CF8091AF03806895
:1011A000DFCF8091AF038C60DBCF8091AF038E7F68
:1011B000D7CF8091AF038D7FD3CF8091AF038B7F4B
:1011C000CFCF8091AF03877FCBCF8091AF038F7E4E
:1011D000C7CF8091AF038F7DC3CF8091AF038F7B4B
:1011E000BFCF8091AF038F77BBCF8091AF03837F59
:1011F000B7CF9091AF03892F97FB87F98058B0CF75
:10120000882361F0109240010E94B01F90933F012B
:1012100080933E0182E00E941F1564CF80914001BF
:1012200081110FC080913E0190913F010E94BC1F2F
:10123000883C910530F486E20E94F41386E20E9415
:10124000D01482E00E9426154DCF882351F01092D1
:1012500041010E94B01F90933F0180933E0180E2C4
:10126000DACF8091410181110FC080913E019091B0
:101270003F010E94BC1F883C910530F487E20E9428
:10128000F41387E20E94D01480E2DCCF0C94A70B09
:101290000C94A90B0C94D2070C944A090895972F2B
:1012A00070E021E1929F600D711D1124FB0195E515
:1012B000899FE00DF11D1124EE0FFF1FE455FF4F34
:1012C000859194910895FC01EE0FFF1FE45BF44FAC
:1012D0008591949108950E944F090E94DC0A9C0117
:1012E000811540E4940708F097C0211580E3380782
:1012F00008F0FAC0203E310508F074C0203C3105EA
:1013000008F0E5C0283A310588F4253A310508F09F
:10131000E2C02130310509F477C0C9010497813A50
:10132000910508F471C030E020E06EC0C901885A10
:1013300091094597C0F7283A310509F4FEC0293ACA
:10134000310509F4FDC02A3A310509F4FCC02B3AF5
:10135000310509F4FBC02C3A310509F4FAC02B3BE6
:10136000310509F4F9C02C3B310509F4F8C02D3AD8
:10137000310509F4F7C0203B310509F4F6C02E3AD7
:10138000310509F4F5C02F3A310509F4F4C0213BC9
:10139000310509F4F3C0223B310509F4F2C0233BC7
:1013A000310509F4F1C0243B310509F4F0C0253BB7
:1013B000310509F4EFC0263B310509F4EEC0273BA7
:1013C000310509F4EDC0283B310509F4ECC0293B97
:1013D000310509F4EBC02A3B310509F4EAC020E0ED
:1013E00034E412C0211590E2390780F42F3F310513
:1013F00009F050F4283E310538F0C901805F9109A9
:101400003065409708F08FCFC9010895C9019F70DA
:101410000E9463099C01F8CF8115944508F041C0F2
:10142000211583E5380708F06AC0211592E53907D0
:1014300038F5211541E5340708F05CC0211580E539
:10144000380708F454C0C90134E0969587953A9559
:10145000E1F78370422F46954695437090E2499F8D
:10146000A0011124582B822F837021E030E002C0AC
:10147000220F331F8A95E2F7242B352B3C68C4CF0B
:10148000C9018370992741E050E002C0440F551F05
:101490008A95E2F72695269580E2289F90011124EF
:1014A000EBCF211596E5390748F4922F88272115AF
:1014B0003545C8F59C01246F306AA6CFC901905606
:1014C0003F708115904108F02ECF30629DCFC90149
:1014D000805C91099DCF253A310549F1263A3105C5
:1014E00049F522E830E490CF3327306C8DCF3F7040
:1014F000306A8ACF322F2227216F306A85CFC90107
:101500008370992741E050E002C0440F551F8A952F
:10151000E2F72695269580E2289F90011124242B3E
:10152000352B3A6871CF88279F719C01CECF21E877
:1015300030E46ACF23E830E467CF22EE34E464CFAE
:1015400029EE34E461CF2AEE34E45ECF25EB34E4B7
:101550005BCF26EB34E458CF23EB34E455CF24EBB8
:1015600034E452CF27EB34E44FCF2CEC34E44CCFAF
:101570002DEC34E449CF23E835E446CF2AE835E4BE
:1015800043CF22E935E440CF24E935E43DCF21E2E1
:1015900036E43ACF23E236E437CF24E236E434CFE0
:1015A00025E236E431CF26E236E42ECF27E236E4D8
:1015B0002BCF2AE236E428CF803E910581F1C8F492
:1015C0008133910509F462C048F48932910509F428
:1015D00056C08A32910509F460C008958933910597
:1015E000B9F082389105A1F08533910509F440C026
:1015F0000895863E910561F138F4823E9105B1F07F
:10160000833E9105E1F00895873E910551F10895DB
:101610002091AF032370D9F080EE90E008952091DF
:10162000AF0320FF14C089E390E008952091AF0339
:1016300022FF0DC024FD09C083EE90E008952091A3
:10164000AF0322FD31C024FF02C090E080E0089586
:101650002091AF0323FFFBCF24FDF7CF87EE90E06F
:1016600008952091AF0323FFEECF86EE90E008951A
:101670002091AF0325FFEBCF89E290E00895209100
:10168000AF0325FFE4CF85E390E008952091AF03F9
:1016900026FFDDCF8AE290E008952091AF0326FF78
:1016A000D6CF81E390E0089582EE90E0089508950A
:1016B0000F931F93CF938C01FB018281811106C090
:1016C000C1E08C2FCF911F910F910895C0914F01D0
:1016D000C11125C00531104799F70E94570B81E0D1
:1016E00080934F010E94B01F90934E0180934D0153
:1016F000109242011092440110924301109246014F
:1017000010924501109248011092470110924A012F
:101710001092490110924C0110924B01D2CF80914E
:101720004D0190914E010E94BC1F883C910540F6EE
:1017300080914201E82FF0E0EE0FFF1FED5BFE4FBE
:10174000118300838F5F80934201C0E0BACF0C9475
:10175000CE070C94CF0785B7806885BF85B78068B2
:1017600085BFA5E2B1E061E070E08D91E82FE295E0
:10177000EF70F0E041A18F709B0101C0220F8A95AC
:10178000EAF7922F9095942391A382A1822B82A3B2
:1017900081E0AA32B80749F7A4E1B1E061E070E066
:1017A0008D91E82FE295EF70F0E041A18F709B01E1
:1017B00001C0220F8A95EAF7922F9095942391A366
:1017C00082A1822B82A381E0A532B80749F7E4E623
:1017D000F1E0A0E5B1E088E791E011921192119259
:1017E00011921D921D921D921D928E179F07A9F7AF
:1017F0000C9446092F923F924F925F926F927F9284
:101800008F929F92AF92BF92CF92DF92EF92FF9210
:101810000F931F93CF93DF93CDB7DEB72B970FB600
:10182000F894DEBF0FBECDBF80E5282E81E0382EB4
:1018300005E211E01E830D8338862F82C12CD12C46
:101840007601C394AF81B8858D909D90AD90BD9089
:10185000B887AF83FD011292129212921292FB8707
:10186000EA87AD81BE818D91BE83AD83E82FE2957D
:10187000EF70F0E091A18F7001E010E002C0000F66
:10188000111F8A95E2F71A830983802F892B81A380
:1018900082A100950987802382A310EA1A95F1F7A7
:1018A00024E131E03C832B8390E080E0AB81BC817C
:1018B0007D90BC83AB83272D22952F7030E0D9011A
:1018C00090965C90AA85BB854D915D916D917C91C0
:1018D000272D2F7001E010E002C0000F111F2A9584
:1018E000E2F79801252109F07AC097018601082EB8
:1018F00004C0000F111F221F331F0A94D2F72801C2
:1019000039014429552966297729AA85BB854D9334
:101910005D936D937C93139701968131910531F618
:1019200081A11985182311A382A1B9818B2B82A3D0
:10193000EA85FB8580819181A281B3818816990611
:10194000AA06BB0649F0F1E0F09378010E94B01FAF
:1019500090937A01809379010F8118850456114084
:1019600009F070CF809178018823E9F080917901A6
:1019700090917A010E94BC1F0697A8F024E631E0FE
:10198000F10181919191A191B1911F01F90181938F
:101990009193A193B1939F01F4E62F16F1E03F06D6
:1019A00079F7109278010E94480981E02B960FB6D2
:1019B000F894DEBF0FBECDBFDF91CF911F910F9185
:1019C000FF90EF90DF90CF90BF90AF909F908F905F
:1019D0007F906F905F904F903F902F900895412C93
:1019E000512C32018ECFCF93DF9300D000D0CDB7F2
:1019F000DEB794E0899FF0011124EC59FE4F8081FD
:101A00009181A281B381BC01CD010F900F900F9005
:101A10000F90DF91CF91089508959C01CB0165B19E
:101A2000542F5095562365B1462B6FB7F894820F0B
:101A3000931F2817390711F46FBF0895F9017191A9
:101A40009F01E8E045B9000000C077FF55B9770F66
:101A5000000000C000C000C055B900C0EA9591F771
:101A6000E8CFFC0194B1942B94B99B01220F331F52
:101A7000620F731FCF010E940D0D87EC90E001975C
:101A8000F1F700C00000089541E00C94310DAF92D1
:101A9000BF92CF92DF92EF92FF920F931F93CF935B
:101AA000DF937C01E901842F242F662309F43FC0D2
:101AB000C42ED12C8FEF90E0861B9109489F8001A6
:101AC000499F100D1124212F812F9927C81AD90A57
:101AD0009CE3A92EB12CC701B5010E94222CFB0169
:101AE000BC01C69EC001C79E900DD69E900D1124CC
:101AF000B5010E94222CE330F10509F443C080EFC8
:101B0000E816F10468F4E130F10591F13297A1F1A2
:101B10008CE3E816F10440F180E020E040E007C0EB
:101B2000E430F10599F1842F861B3597A9F7E42F4E
:101B3000F0E0E75AF34F4491E22FF0E0E75AF34F19
:101B40009491E82FF0E0E75AF34FE49149839883AA
:101B5000EA83DF91CF911F910F91FF90EF90DF907B
:101B6000CF90BF90AF900895812F262F210FDFCF08
:101B7000812F242F461BDBCF862F810FE42F412F8F
:101B80002E2FD5CFE42FE61B842FF9CF842F462F9D
:101B9000410FCDCF88E090E00C94582CAB01BC01F4
:101BA00088E090E00C94762CCF93DF9300D000D0A7
:101BB000CDB7DEB7E7E7F2E083E0808311828FEFF5
:101BC000828383838091770290917802A091790239
:101BD000B0917A0289839A83AB83BC83BC01CD0127
:101BE0000F900F900F900F90DF91CF910C94CE0D2E
:101BF00080917702EFE7F2E080FF06C064E670E0D4
:101C00008FE792E00C94440D118210821282339679
:101C100083E0EB3AF807C1F7F1CFEFE7F2E0818319
:101C200060834283339693E0EB3AF907C1F70C9453
:101C3000F80DEF92FF920F931F93CF93DF9300D095
:101C40000F92CDB7DEB7182FE92EF62E042F809114
:101C5000770290917802A0917902B0917A028093F4
:101C60007B0290937C02A0937D02B0937E028091D0
:101C7000770280FF1FC09E012F5F3F4F812F9E2D57
:101C80000E94470D80917B0210FB87F980937B02B5
:101C9000169580917C028078182BE0FA17F9109342
:101CA0007C02F0927D0200937E024B8169818A81E1
:101CB0000E940D0E0F900F900F90DF91CF911F910A
:101CC0000F91FF90EF9008950F931F93CF93DF93A1
:101CD00000D000D00F92CDB7DEB789839D83062F49
:101CE000142F8091770280FF54C0982F9E779230F6
:101CF00091F589819D810E94190E80917702B981A9
:101D0000B0FB87F980937702B6958091780280784E
:101D1000B82B8D8180FBB7F9B093780200937902DC
:101D200010937A028091770290917802A0917902C3
:101D3000B0917A0289839A83AB83BC83BC01CD01C5
:101D40000F900F900F900F900F90DF91CF911F91F8
:101D50000F910C94CE0D982F96959F732EE3290F1B
:101D60002F73243018F410917A02C7CF965C9F73BA
:101D7000993018F6881F8827881F909178029D83D4
:101D8000990F982B9983AD81A7FBAA27A0F9AD8362
:101D9000B4CF0F900F900F900F900F90DF91CF91D5
:101DA0001F910F910895E7E7F2E02081221F22277B
:101DB000221F30917802432F440F842F822B37FB50
:101DC000992790F9089668E671E00E94362C4381C5
:101DD00062810C94640E20917702221F2227221F19
:101DE00030917802432F440F842F822B37FB9927A1
:101DF00090F98830910540F4805A9E4F40917A02C4
:101E0000609179020C94640E089768E671E00E9474
:101E1000362CF4CF60917902683F90F4685F80912E
:101E20007702881F8827881F90917802292F220F18
:101E300097FB992790F940917A02822B0C94640EBB
:101E40006FEFEDCF60917902683090F0685080912B
:101E50007702881F8827881F90917802292F220FE8
:101E600097FB992790F940917A02822B0C94640E8B
:101E700060E0EDCF40917A02483F90F4485F809156
:101E80007702881F8827881F90917802292F220FB8
:101E900097FB992790F960917902822B0C94640E3C
:101EA0004FEFEDCF40917A02483090F0485080914A
:101EB0007702881F8827881F90917802292F220F88
:101EC00097FB992790F960917902822B0C94640E0C
:101ED00040E0EDCFCF93DF9300D000D0CDB7DEB799
:101EE0009091770290FF47C09178811132C0926043
:101EF000909377028091770290917802A091790275
:101F0000B0917A0289839A83AB83BC83BC01CD01F3
:101F10000E94CE0D80917702982F9E77923009F51E
:101F200010929001881F8827881F90917802292F8E
:101F3000220F97FB992790F940917A0260917902DC
:101F4000822B0F900F900F900F90DF91CF910C94F8
:101F5000640E893110F09063CBCF8F73880F982B6C
:101F6000C7CF982F9695925C9F739631D8F691E0E3
:101F700090939001D7CF0F900F900F900F90DF911B
:101F8000CF91089580914A02816080934A0281E056
:101F9000809391010E94011F811104C00E94E01EE4
:101FA0000E94D40D0E94CA0D60937702709378024C
:101FB0008093790290937A026E7761F40E94D40D37
:101FC0000E94CA0D60937702709378028093790221
:101FD00090937A0281E0809390018091770280FF54
:101FE00004C086958F730C946A0F089580917702D0
:101FF00086958F738F5F893108F081E00C946A0FAA
:10200000CF93DF9300D000D0CDB7DEB790917702A9
:10201000892F8E7F90FF8160809377028091770275
:1020200090917802A0917902B0917A0289839A8383
:10203000AB83BC83BC01CD010E94CE0D80917702A1
:1020400080FF0AC086958F730F900F900F900F90AE
:10205000DF91CF910C946A0F109290019FEFA0E74F
:10206000B2E09150A040B040E1F700C000000F90F6
:102070000F900F900F90DF91CF910C94F80DCF93AC
:10208000C82F80918E0190918F010E94BC1FEC2F70
:10209000F0E0EB5AF44FE491E817190609F010F557
:1020A0000E94B01F90938F0180938E01E0918D016B
:1020B000F0E0E75AF44F449180917702881F882717
:1020C000881F90917802292F220F97FB992790F96A
:1020D00060917902822B0E94190E80918D018F5F91
:1020E00080938D01CF910895CF93C82F80918B015C
:1020F00090918C010E94BC1FEC2FF0E0EE5AF44F3F
:10210000E491E817190609F0E8F40E94B01F9093D3
:102110008C0180938B0140917A02609179028091C9
:10212000890190918A010E94190E809189019091F4
:102130008A01019668E671E00E94222C90938A0140
:1021400080938901CF910895EF92FF921F93CF93CF
:10215000DF93182F80918701909188010E94BC1F06
:10216000E12FE695F0E0EE5AF44FE491E8171906F6
:1021700009F098F50E94B01F909388018093870121
:10218000D0E0C0E088E6E82EFF24F3949E012158B9
:102190003D4F80918501909186018C0F9D1FB70165
:1021A0000E94222C40917A02609179020E94470D90
:1021B0002396CC3281E0D80749F70E94F80D809130
:1021C00085019091860110FF0EC00196B7010E9413
:1021D000222C9093860180938501DF91CF911F91EE
:1021E000FF90EF9008950197F4CFAF92BF92CF92F6
:1021F000DF92EF92FF920F931F93CF93DF93C82F3D
:10220000DD24DA9480FD02C0DD24D3948091830123
:10221000909184010E94BC1FC695EC2FF0E0E15B19
:10222000F44FE491E817190611F008F053C00E942A
:10223000B01F9093840180938301CFE7D2E010E038
:1022400000E097E0A92EB12C198218821A8287E04B
:10225000E82EF12CC12C809182018C0D87FD8C59C8
:10226000082E000C990B80179107E9F420917A024F
:102270002E9DC0012F9D900D1124B5010E94362C7A
:10228000462F80917702881F8827881F90917802B7
:10229000592F550F97FB992790F99E01609179026C
:1022A000852B0E94470DCD0C81E0E81AF10899F6C4
:1022B0000F5F1F4F23960436110531F60E94F80D6B
:1022C0008091820191E0D91212C081110EC083E683
:1022D00080938201DF91CF911F910F91FF90EF903A
:1022E000DF90CF90BF90AF9008958150F1CF90E0F4
:1022F0000196B8010E94362CEBCFBF92CF92DF92AD
:10230000EF92FF920F931F93CF93DF93CDB7DEB77A
:10231000CC52D1400FB6F894DEBF0FBECDBF182F00
:1023200080918001909181010E94BC1FE12FF0E01B
:10233000E45BF44FE491E817190611F008F07AC055
:102340000E94B01F90938101809380018E010F5FE6
:102350001F4FF12CE12C6801D80111961C921197A6
:102360001C9212961C92B12C9091000180917F01D9
:10237000B99E800D112484360CF083E687FD80E041
:10238000082E000C990B8E159F05A1F48091770201
:10239000881F8827881F90917802592F550F97FB27
:1023A000992790F9980140917A0260917902852BE2
:1023B0000E94470DB394B7E0BB12D6CFEFEFEE1AF1
:1023C000FE0A0D5F1F4FF4E6EF16F10429F62FE722
:1023D00032E009E010E054E6E52EF12CC801B70127
:1023E0000E94362CFC01EE0FFF1FE80FF91FEC0DC9
:1023F000FD1D8181D90111968C93119780818C9359
:10240000828112968C930F5F1F4F2D5F3F4F0D36C9
:10241000110521F70E94F80D9091000180917F0134
:102420009130E9F48A3FBCF489EF80937F018FEF0C
:1024300080930001C45DDE4F0FB6F894DEBF0FBE7F
:10244000CDBFDF91CF911F910F91FF90EF90DF9063
:10245000CF90BF900895815080937F01EBCF8B3652
:102460002CF08AE680937F0181E0E2CF8F5FF4CF8A
:10247000CF93DF9380917D0190917E010E94BC1FDC
:10248000883E934028F10E94B01F90937E01809374
:102490007D0180917B0190917C010196817099274B
:1024A00090937C0180937B01CFE7D2E09E01409125
:1024B0007A026091790290E080E00E94470D2396B5
:1024C00083E0CB3AD80791F7DF91CF910C94F80DC8
:1024D000DF91CF91089580919001882371F18091CF
:1024E000770286958F739EE3980F9F73943018F44C
:1024F00082500C943F109AE3980F9F73933018F416
:1025000086500C94741097E3980F9F73963018F4CC
:1025100089500C94A41091E3980F9F73963018F48F
:102520008F500C94F5109BE2980F9F73933018F422
:1025300085510C947D110C94381208959093970155
:10254000809396010895E0919601F091970130975C
:1025500021F00190F081E02D099480E00895E09150
:102560009601F0919701309721F00280F381E02DE0
:1025700009940895E0919601F0919701309721F028
:102580000480F581E02D0994089520919401309103
:1025900095012817390771F0909395018093940164
:1025A000E0919601F0919701309721F00680F78134
:1025B000E02D0994089520919201309193012817FC
:1025C000390771F09093930180939201E091960105
:1025D000F0919701309721F00084F185E02D099466
:1025E000089508950C94F1120E94A71F0E94AB0B4E
:1025F0000E9470200C94C20F4F925F926F927F9254
:102600009F92AF92BF92CF92DF92EF92FF920F9381
:102610001F93CF93DF9300D000D00F92CDB7DEB7DA
:102620000E94FA0B29E9A22E21E0B22E10E000E070
:10263000902E802F0E94F30C6B017C01F5014190DC
:102640005190619071905F014C145D046E047F04A1
:1026500009F475C080914A0281FD0E940C0D90E042
:1026600080E04C245D246E247F24B301A201082E57
:1026700004C076956795579547950A94D2F740FF21
:1026800059C089839A82412C512C3201439404C051
:10269000440C551C661C771C8A95D2F7C420D520A3
:1026A000E620F72081E0CD28CE28CF2809F480E06D
:1026B0008B830E94B01F8160782F9D838C8349811A
:1026C0005A816B818D810E94CB13000F111F000F67
:1026D000111FF801E756FE4F80819181A281B381DD
:1026E00084259525A625B72580839183A283B3836E
:1026F0000E941D230E94A312909198018917B1F1A5
:102700000E94A312809398010F900F900F900F904A
:102710000F90DF91CF911F910F91FF90EF90DF907D
:10272000CF90BF90AF909F907F906F905F904F90B1
:102730000C944C0901968131910509F096CF0F5FF9
:102740001F4F0530110509F073CF8FEF89838A83FE
:102750001B820E94B01F8160782F9D838C834981EA
:102760005A816B818D810E94CB13C2CF0F900F9045
:102770000F900F900F90DF91CF911F910F91FF90CD
:10278000EF90DF90CF90BF90AF909F907F906F9031
:102790005F904F900895CF93DF93CDB7DEB72B971F
:1027A0000FB6F894DEBF0FBECDBF4F835887698741
:1027B0007A878B871E8285E0FE013796DE011196AF
:1027C00001900D928A95E1F749815A816B817C8154
:1027D0008D819E812B960FB6F894DEBF0FBECDBFC4
:1027E000DF91CF910C94421A882309F4D8C0823823
:1027F00071F40E94A31281FDD2C089E30E94E71DFB
:102800000E94B11E89E30E94241E0C94B11E8338DD
:1028100059F40E94A31280FDC2C083E50E94E71D07
:102820000E94B11E83E5EFCF843859F40E94A312B1
:1028300082FDB5C087E40E94E71D0E94B11E87E4B7
:10284000E2CF9CEF980F913A18F40E94E71DDDCF7C
:1028500090E2980F983050F4877091E001C0990F82
:102860008A95EAF7892F0E94681ECFCF9BE5980FC3
:10287000933070F4853A31F0863A39F083E890E08D
:102880000C94C51281E890E0FBCF82E890E0F8CF8D
:1028900098E5980F953108F082C0883A09F440C055
:1028A000893A09F440C08A3A09F440C08B3A09F4E5
:1028B00040C08C3A09F440C08B3B09F440C08C3BCB
:1028C00009F440C08D3A09F440C0803B09F440C08F
:1028D0008E3A09F440C08F3A09F440C0813B09F4B4
:1028E00040C0823B09F440C0833B09F440C0843BB4
:1028F00009F440C0853B09F440C0863B09F440C060
:10290000873B09F440C0883B09F440C0893B09F487
:1029100040C08A3B09F440C090E080E00C94DB1298
:1029200082EE90E0FBCF89EE90E0F8CF8AEE90E067
:10293000F5CF85EB90E0F2CF86EB90E0EFCF83EB25
:1029400090E0ECCF84EB90E0E9CF87EB90E0E6CF2E
:102950008CEC90E0E3CF8DEC90E0E0CF83E891E069
:10296000DDCF8AE891E0DACF82E991E0D7CF84E940
:1029700091E0D4CF81E292E0D1CF83E292E0CECF5A
:1029800084E292E0CBCF85E292E0C8CF86E292E08B
:10299000C5CF87E292E0C2CF8AE292E0BFCF08952E
:1029A000882309F44BC0823871F40E94A31281FF7E
:1029B00045C089E30E94E71D0E94B11E89E30E9481
:1029C000241E0C94B11E833859F40E94A31280FF78
:1029D00035C083E50E94E71D0E94B11E83E5EFCF5D
:1029E000843859F40E94A31282FF28C087E40E9411
:1029F000E71D0E94B11E87E4E2CF9CEF980F913A49
:102A0000F0F290E2980F983050F4877091E001C096
:102A1000990F8A95EAF7892F0E946E1ED2CF9BE507
:102A2000980F933020F490E080E00C94C512885AFF
:102A3000853120F490E080E00C94DB120895882327
:102A400021F00E94681E0C94B11E0895882321F085
:102A50000E946E1E0C94B11E08958F929F92AF92A9
:102A6000BF92DF92EF92FF920F931F93CF93DF936A
:102A700000D000D00F92CDB7DEB77C016D83798393
:102A8000FC01058102950F70128111110E94871EB1
:102A90000E94E01DD82E882371F01123A1F08D81B2
:102AA000805E883080F082E00E94CA1D0E94E01D96
:102AB00091E0D82ED926E981E295EF70F0E0EB5451
:102AC000F34D0C944A2CD12CF6CF09810F70F9816B
:102AD000F07F11F00295007F1123B1F0002361F027
:102AE0008D81805E883018F02D81211109C0802FE2
:102AF0000E94681E0E94B11E8D810E94F41315C0B1
:102B0000802F0E94791EF6CF8D810E94D014002361
:102B100061F08D81805E883018F03D81311129C0CF
:102B2000802F0E946E1E0E94B11EDD2009F4D3C1C9
:102B30000E94BD1D80FDCFC1F70112820E94B71D0A
:102B40000E94001CC7010E947C170E94B71D0F90B5
:102B50000F900F900F900F90DF91CF911F910F91D9
:102B6000FF90EF90DF90BF90AF909F908F900C946C
:102B7000221C802F0E947F1ED6CF49814F70B42E19
:102B80005981507F503219F0B29480EFB8228D8174
:102B9000882369F0813029F1112369F1002359F06C
:102BA000F701858180FFA8CF8F70858304C0112332
:102BB00061F0011104C08B2D0E941F15B6CF8B2D23
:102BC0000130D1F70E949B1EB0CF011106C00E94B8
:102BD0009E1E8B2D0E942615A8CF013009F4A5CF8B
:102BE000F6CF112321F0063008F09FCFE4CF053057
:102BF00008F09BCFEECF002361F38D810E94D014AB
:102C000094CF898186958695837069F0813009F02B
:102C10008CCF8D8199819370111102C090E080E07A
:102C20000E94DB1282CF8D8199819370111102C0B5
:102C300090E080E00E94C51278CF8D81112329F0A9
:102C40000E942B220E94122370CF0E949322FACF5F
:102C50008981837009F05FC0111167CF2D812295A2
:102C600026952770220F220F8D818F7090E0B0E0A3
:102C7000A0E04C015D01022E04C0880C991CAA1C26
:102C8000BB1C0A94D2F7FD8160E070E0CB01F4FF39
:102C90000FC06FE070E080E090E004C0660F771F27
:102CA000881F991F2A95D2F7609570958095909509
:102CB00029812695269523702D832230B1F023306B
:102CC00019F19B01AC01282939294A295B2929835B
:102CD0003A834B835C833D8169817A818B819C81BE
:102CE0003130B1F00E948D1B20CF9B01AC0128290F
:102CF00039294A295B2929833A834B835C83CA019A
:102D0000B9010E94B71B11CF0E948D1BC501B401F0
:102D10000E94631B0ACF8695112311F0898181706F
:102D2000882309F402CF2D81229526952770220F42
:102D3000220F8D818F7090E0B0E0A0E04C015D012A
:102D4000022E04C0880C991CAA1CBB1C0A94D2F742
:102D50003D8160E070E0CB0134FF0FC06FE070E0B8
:102D600080E090E004C0660F771F881F991F2A95A6
:102D7000D2F76095709580959095498146954695D6
:102D800043704D834230B1F0433019F19B01AC01E7
:102D9000282939294A295B2929833A834B835C8373
:102DA0003D8169817A818B819C813130B1F00E94B3
:102DB000931CBBCE9B01AC01282939294A295B29E8
:102DC00029833A834B835C83CA01B9010E94BD1CED
:102DD000ACCE0E94931CC501B4010E94691CA5CE13
:102DE0003D81323F09F447C080F4303F79F1313FF3
:102DF000D9F1832F805E8031D0F0112309F456C0C1
:102E000001117ACE89818F7133C04D81433FD1F159
:102E1000443F99F7112309F43FC089818F71898359
:102E20000E94001C63E089810E94C11D7ECE5D81ED
:102E30005F705D8389818F71112321F00E94001CD6
:102E40008D81BACE0E94221C8D81C4CE112341F007
:102E5000053008F06ACE89818F710E94471C65CECB
:102E6000063008F062CEF7CF89818F71112339F0D7
:102E70000E94001C5ACE89818F711123C9F30E94D0
:102E8000221C53CE112329F089818F710E94EB1BE4
:102E90004CCE0E94E11B49CE81E00E94CA1D023047
:102EA00008F443CE82E00E94CA1D3FCE0111A5CE98
:102EB00089818F71E4CF49814F706D81C7010E9474
:102EC000CB070E94DC1A31CE49814F706D81C7015A
:102ED0000E944E092ACE0F900F900F900F900F90E6
:102EE000DF91CF911F910F91FF90EF90DF90BF90F6
:102EF000AF909F908F9008950F931F93CF93DF9380
:102F0000EC018B819C81892B29F08881998189230F
:102F10008F3F29F4DF91CF911F910F910895CE013A
:102F20000E94E4078823B1F3688179818A810E9435
:102F30008D1D8C010E94E71C0E94581BB801CE0118
:102F4000DF91CF911F910F910C942D150E94871E38
:102F50000E94981E0E945A1E0E94B11E0E940324C5
:102F60000E94122390E080E00E94C51290E080E071
:102F70000C94DB120E94761E0C94A6170E94811DF1
:102F8000282F892F82958F70903C80F48A30B0F47E
:102F9000843020F4823090F480E008958630E1F7A8
:102FA00081E0203E88F0213FB9F70EC08C3011F04F
:102FB0008F3091F793FB882780F9089581E0203FB7
:102FC00039F018F4203E40F70895243F29F7FCCF4C
:102FD0000895CF93DF9300D000D00F92CDB7DEB726
:102FE0000F900F900F900F900F90DF91CF91089559
:102FF000CF93DF9300D000D000D0CDB7DEB72696B8
:103000000FB6F894DEBF0FBECDBFDF91CF9108950C
:103010001F93CF93DF93E091AE0116E08091AF0153
:103020008E1304C0DF91CF911F910895CE2FD0E071
:103030001E9FF0011124E055FE4F408151816281B5
:103040007381848195810E94F817FE013196E770A3
:10305000E5CF4091E0015091E1016091E201709172
:10306000E3018091E4019091E5010C94F8171F931E
:10307000CF93DF938091E501807FC1F48091E201DD
:103080008823A1F08091AE01C091AF016091E00171
:103090007091E1014091E3015091E401D62FD723D3
:1030A000DA01A095B09516E0C81304C0DF91CF9166
:1030B0001F91089590E04115510511F0DF3F31F463
:1030C00001968770F1CF2A0F3B1F17C0189FF001A0
:1030D000199FF00D1124E055FE4F21812713F0CFE9
:1030E00020812613EDCF22812111EACF2381348163
:1030F0002417350740F3241B350B283C310500F716
:103100002091E5012F7020612093E50126E0289FA2
:10311000F001299FF00D1124EB54FE4F80818F7038
:103120008061808380EE91E00E947C17DF91CF91D7
:103130001F910C9408189F92AF92BF92CF92DF928A
:10314000EF92FF920F931F93CF93DF93CDB7DEB72C
:103150002B970FB6F894DEBF0FBECDBF8C0185E074
:10316000F801DE01179601900D928A95E1F7D801DA
:103170004C9111965C9111971296EC901297809158
:10318000E3019091E401009709F46BC12091E00103
:103190003091E101632F62236F3F09F462C11396FE
:1031A000CD90DC909090E201992009F4F8C0C81607
:1031B000D90608F43FC0F601E81BF90BCF01FF2444
:1031C000F394883C910508F0F12C80EEA82E81E064
:1031D000B82E8091E501982F907FFF2009F4B7C0A9
:1031E000911180C0FE2C35132AC0241328C0E11091
:1031F00026C08F7080618093E5010E942918C50167
:103200000E947C178091E501D80115968C938F2D33
:103210002B960FB6F894DEBF0FBECDBFDF91CF91D6
:103220001F910F91FF90EF90DF90CF90BF90AF90E4
:103230009F900895809590958C0D9D1DC0CFCD28B1
:1032400029F0842F85238F3F09F019C180E0B82F22
:10325000B170DB2EE091AE012091AF0136E080FD30
:103260001CC0EE20A1F28091E50181608093E50110
:10327000F12CCDCF8E2F90E03E9FF0011124E05530
:10328000FE4F6181651306C06081641303C06281D3
:103290006E11E7CFFC013196E770E213EBCF4F835D
:1032A00058878F8198850E94811D292F22952F7024
:1032B000903260F0225F2F70223078F49F7051F0CE
:1032C000F8019581907F31F4D12C0AC09F7011F0E4
:1032D0008823D1F3805E8830B8F3C8010E947C1740
:1032E000FD2C95CF351306C0241304C0D801EE2061
:1032F00009F47BC04F8358878F8198850E94BE1741
:10330000882309F4B8C0EE2009F4B5C08091E50126
:10331000803270F02091E0013091E1013A832983FD
:103320001B82DD82CC828E83CE0101960E947C17A7
:1033300086E0F801A0EEB1E001900D928A95E1F7E8
:103340000E9437180E942918FF24F39460CF91112E
:1033500013C07C2DDB86CA866E2D8B850E94E917F3
:1033600080EE91E00E947C1786E0F50111928A952B
:10337000E9F70E9429184BCF3513BCCF2413BACFDD
:10338000E110B8CFD80115968C93C8010E947C1724
:1033900086E0F50111928A95E9F7F92C38CFC81625
:1033A000D90688F1B601681B790BCB01F12C883C5A
:1033B000910508F047C0FE2CEE2009F45CC03513DF
:1033C00030C024132EC08091E50180FD21C0982FCC
:1033D000907FF1F0D80115968C931597903F39F0B6
:1033E000982F907F905F8F70892B15968C93C801D2
:1033F0000E947C1786E0F801A0EEB1E001900D92EA
:103400008A95E1F7B6CF809590958C0D9D1DCECF16
:1034100086E0F801A0EEB1E001900D928A95E1F707
:10342000F6CE4F8358878F8198850E94BE178111F1
:103430007FCF8091E50181608093E501C8010E9402
:103440007C17E5CE7C2DDB86CA866E2D8B850E948F
:10345000E91786E0E0EEF1E0DF011D928A95E9F7D9
:1034600088CFEE2041F04F8358878F8198850E9446
:10347000BE1781115DCFC8010E947C1765CF81E026
:103480008E25E5CE1F93CF93DF93CDB7DEB72C9774
:103490000FB6F894DEBF0FBECDBF4F835887698744
:1034A0007A878B879C87CE0107960E949B1888237A
:1034B00069F08A859B85892B39F04F815885842F47
:1034C00085238F3F09F071C016E05FC086E0FE01E2
:1034D0003796DE01119601900D928A95E1F78A8563
:1034E0009B85892B89F388859F8189238F3F61F391
:1034F0002091AF0130E0C901019687709927409172
:10350000AE014817190671F40E94BA171092AF0164
:103510001092AE0186E0E0EEF1E0DF011D928A95A7
:10352000E9F7D2CF96E0929FD001939FB00D11247E
:10353000A055BE4FFE01319601900D929A95E1F78C
:103540008093AF010E940818BFCF819FC001112452
:1035500080559E4F0E949B188823E9F0E091AE01B0
:103560001E9FF0011124E055FE4F40815181628180
:103570007381848195810E94F8178091AE0190E05B
:103580000196877099278093AE018091AE0190914A
:10359000AF018913DACF2C960FB6F894DEBF0FBEB9
:1035A000CDBFDF91CF911F91089569857A858B8575
:1035B0009C850E94F81788CFEF92FF920F931F937C
:1035C000CF93DF938C01892B89F0F12CEE24E394C7
:1035D000E8012196F8018491843709F457C0A0F4DA
:1035E000823009F43EC048F48130D1F0DF91CF91B0
:1035F0001F910F91FF90EF9008959CEF980F9037D7
:10360000A8F70E94F4130AC0853709F44CC09CE760
:10361000980F903758F78F770E94D0148E0116C0FC
:103620000E5F1F4FFE01849190E2980F983060F476
:103630008770FE2D01C0FF0F8A95EAF78F2F0E9439
:103640008A1E0E94B11E02C00E94F4138F2D815069
:1036500008F4BECFEFE9FFE03197F1F700C00000BA
:10366000F6CF0E5F1F4FFE01849190E2980F9830C5
:1036700050F48770FE2D01C0FF0F8A95EAF78F2F57
:103680000E94901EDECF0E94D014E0CF0E5F1F4F2D
:10369000FE01C491C150D0F28FE99FE00197F1F78C
:1036A00000C00000F7CF0E5F1F4FFE01F490CECF99
:1036B00008956093210270932202809323029093D5
:1036C00024020C94A617CF93DF9300D000D0CDB77F
:1036D000DEB769837A838B839C83809121029091EA
:1036E0002202A0912302B091240229813A814B81C8
:1036F0005C81822B932BA42BB52B8093210290937A
:103700002202A0932302B09324020F900F900F90F7
:103710000F90DF91CF910C94A617CF93DF9300D039
:1037200000D0CDB7DEB769837A838B839C83809189
:10373000210290912202A0912302B09124022981BA
:103740003A814B815C8182239323A423B523809308
:10375000210290932202A0932302B09324020F909F
:103760000F900F900F90DF91CF910C94A617CF93ED
:10377000DF9300D000D0CDB7DEB769837A838B8327
:103780009C838091210290912202A0912302B0910A
:10379000240229813A814B815C8182279327A427C7
:1037A000B5278093210290932202A0932302B09325
:1037B00024020F900F900F900F90DF91CF910C94F7
:1037C000A61710921D0210921E0210921F02109254
:1037D00020020C94A61741E050E060E070E004C0C5
:1037E000440F551F661F771F8A95D2F740931D021D
:1037F00050931E0260931F02709320020C94A61730
:10380000282F81E090E0A0E0B0E004C0880F991F6D
:10381000AA1FBB1F2A95D2F740911D0250911E028C
:1038200060911F0270912002842B952BA62BB72B41
:1038300080931D0290931E02A0931F02B09320025A
:103840000C94A61741E050E060E070E004C0440F23
:10385000551F661F771F8A95D2F740955095609542
:10386000709580911D0290911E02A0911F02B0914F
:10387000200284239523A623B72380931D029093CF
:103880001E02A0931F02B09320020C94A617282FAB
:1038900081E090E0A0E0B0E004C0880F991FAA1F6B
:1038A000BB1F2A95D2F740911D0250911E026091D4
:1038B0001F027091200284279527A627B72780939F
:1038C0001D0290931E02A0931F02B09320020C943D
:1038D000A617CF93DF9300D000D0CDB7DEB76983B2
:1038E0007A838B839C8380911D0290911E02A0910C
:1038F0001F02B091200229813A814B815C81822B89
:10390000932BA42BB52B80931D0290931E02A093A2
:103910001F02B09320020F900F900F900F90DF9135
:10392000CF910C94A617CF93DF9300D000D0CDB7E2
:10393000DEB769837A838B839C8380911D0290918B
:103940001E02A0911F02B091200229813A814B8171
:103950005C8182239323A423B52380931D0290933B
:103960001E02A0931F02B09320020F900F900F90A1
:103970000F90DF91CF910C94A617CF93DF9300D0D7
:1039800000D0CDB7DEB769837A838B839C83809127
:103990001D0290911E02A0911F02B0912002298168
:1039A0003A814B815C8182279327A427B527809396
:1039B0001D0290931E02A0931F02B09320020F904D
:1039C0000F900F900F90DF91CF910C94A617089550
:1039D000E82F21E1929FE00D11248E2F877041E0A6
:1039E00001C0440F8A95EAF7E695E695E69585E0ED
:1039F000E89FF0011124EA51FE4F30E020E070E032
:103A00005191DF011197CB01022E02C09695879547
:103A10000A94E2F7817081958527842385278C930A
:103A20002F5F3F4F2530310559F70895E82F21E1E9
:103A3000929FE00D11249E2F9770E695E695E695EE
:103A400085E0E89FF0011124EA51FE4F50E040E08C
:103A500080E0219130E0092E02C0369527950A9426
:103A6000E2F721703327042E01C0220F0A94EAF7EF
:103A7000822B4F5F5F4F4530510559F70895BF9234
:103A8000CF92DF92EF92FF920F931F93CF93DF932A
:103A90008C01C0901D02D0901E02E0901F02F09099
:103AA00020028091210290912202A0912302B091E4
:103AB0002402C82AD92AEA2AFB2ACFE1D0E0BC2E68
:103AC000D701C6010C2E04C0B695A795979587958A
:103AD0000A94D2F780FD0EC0219788F7B12C8B2D68
:103AE000DF91CF911F910F91FF90EF90DF90CF90DA
:103AF000BF900895B8018C2F0E946B09019761F364
:103B0000EECFCF93DF93D82FC92F0E943F1D6D2F8B
:103B10007C2FDF91CF910C946B091F93CF93DF9390
:103B2000162FD72F9091AD01992339F0862F972F1B
:103B3000DF91CF911F910C94811D882391F0862FE6
:103B4000972F0E943F1DC82F682F812F9D2F0E9405
:103B5000E81C612F7D2F8C2FDF91CF911F910C944A
:103B60006B09862F972F0E94161DC82FF2CF8091C8
:103B70002502859585958595089580912502877004
:103B8000089598E0899F90011124622B609325028B
:103B90000C94001C90912502809589238093250226
:103BA000282F277061F4282F082E000C330B921752
:103BB000130629F08595859585950C94221C08950A
:103BC00090912502977081E009F480E0089590912A
:103BD00013019923E1F09091AF0397FF18C0E82FEC
:103BE000E695E695E695EF3139F1209101013091A6
:103BF0000201E20FF32FF11D877021E030E001C0D8
:103C0000220F8A95EAF78181822B81830895209182
:103C1000010130910201F90132969FEF40E051918C
:103C2000851751F09F3F19F4511101C0942F4F5F38
:103C30004E31A9F79F3F09F40895290F311D97FDD3
:103C40003A95F9018283089590911301992301F126
:103C50009091AF0397FF1CC0E82FE695E695E69597
:103C6000EF3139F12091010130910201E20FF32F80
:103C7000F11D877021E030E0A90102C0440F551FFB
:103C80008A95E2F7CA0180959181892381830895FD
:103C90002091010130910201F9013296205E3F4FDF
:103CA0009191891303C0DF0111971C92E217F3076A
:103CB000B9F7089581E090E0E0910101F0910201EF
:103CC000E80FF91F1082019680329105A9F7089537
:103CD00090914902982B909349020895982F9095BE
:103CE00080914902892380934902089510924902E4
:103CF000089590914802982B909348020895982F28
:103D000090958091480289238093480208951092EB
:103D10004802089590914702982B90934702089586
:103D2000982F9095809147028923809347020895A8
:103D30001092470208958093260208951092260259
:103D400008952091010130910201F9013196205E20
:103D50003F4F80E0919191118F5FE217F307D1F708
:103D60000895E0910101F091020180914902808360
:103D7000E0910101F0910201808190914802892B2C
:103D80008083E0910101F0910201808190914702CE
:103D9000892B808390912602992361F0E0910101A3
:103DA000F09102018081892B80830E94A11E8111E4
:103DB0001092260280910101909102010C94AF12A1
:103DC0006DEE7EEF90E080E00E94822C60E082E069
:103DD00090E00E94642C60E083E090E00E94642CFC
:103DE00060E084E090E00E94642C60E085E090E078
:103DF0000E94642C40E050E0BA0188E090E00C940E
:103E0000762C90E080E00E945E2C9C0181E02D3EAB
:103E10003E4F09F080E0089582E090E00C94502C31
:103E2000682F82E090E00C94642C83E090E00C9486
:103E3000502C682F83E090E00C94642C84E090E098
:103E40000C94502C682F84E090E00C94642C8091AA
:103E5000B503843039F110924B0288E190E020E400
:103E60000FB6F894A895809360000FBE2093600071
:103E700080E00E944C0983B7817F846083BF83B751
:103E8000816083BF7894889583B78E7F83BF0FB698
:103E9000F894A895809160008861809360001092EA
:103EA00060000FBE089508950895CF93DF9300D06A
:103EB00000D00F92CDB7DEB70E94531F0E94FA0BBD
:103EC0000E94541F1D828D810E94F30C672B682B6A
:103ED000692B71F48D818F5F8D838530A1F780E030
:103EE0000F900F900F900F900F90DF91CF9108954A
:103EF00081E0F6CF0E94BA170E94A3120C944C09DD
:103F00001F921FB61F9211248F939F93AF93BF935D
:103F100080914B02811113C08091AB039091AC034F
:103F2000A091AD03B091AE034196A11DB11D809348
:103F3000AB039093AC03A093AD03B093AE03BF91DA
:103F4000AF919F918F911F901FBE1F90189582E097
:103F500084BD93E095BD9AEF97BD80936E00089560
:103F60002FB7F8948091AB039091AC03A091AD036F
:103F7000B091AE032FBF0895CF92DF92EF92FF92E0
:103F80009C014FB7F8948091AB039091AC03A09142
:103F9000AD03B091AE034FBF6C017D01EE24FF2451
:103FA000A90170E060E0C416D506E606F70638F011
:103FB000821B930BFF90EF90DF90CF9008950197B5
:103FC000F7CF1F921FB61F9211248F939F93AF9329
:103FD000BF938091AB039091AC03A091AD03B091DE
:103FE000AE030196A11DB11D8093AB039093AC036A
:103FF000A093AD03B093AE03BF91AF919F918F910A
:104000001F901FBE1F9018950E94F927F8942FEF5C
:1040100087EA91E6215080409040E1F700C000001F
:1040200087E090EBDC018093BE039093BF03A093E5
:10403000C003B093C10388E19CE00FB6F894A89543
:10404000809360000FBE90936000FFCFAF92BF924D
:10405000CF92DF92EF92FF920F931F93CF93C0E026
:10406000A82EB12C8C2F0E94F30C6B017C0110E068
:1040700000E0D701C601002E04C0B695A79597951C
:1040800087950A94D2F780FF13C0602F7C2F80E0C1
:104090000E944F09A816B90659F481E0CF911F91EB
:1040A0000F91FF90EF90DF90CF90BF90AF90089569
:1040B0000F5F1F4F01311105E1F6CF5FC53091F65B
:1040C00080E0ECCFCF93C82F8CE20E94262088237B
:1040D00021F08C2FCF910C94262080E0CF91089571
:1040E000CF93DF9300D000D0CDB7DEB70E94011F81
:1040F000811102C00E94E01E95E6998308C00E94CB
:10410000FA0B8FE39CE90197F1F700C00000A98149
:10411000A150A983A111F3CF89E20E9462208111ED
:1041200010C18AE20E94622081110E94E01E85E097
:104130000E94622081110E9404200E940C1F809323
:104140004A0287E00E946220882371F08BE10E947E
:104150006220882309F4D1C090914A02892F8D7F73
:1041600091FF826080934A0280914A020E94101F50
:104170000E941E1F90E09093B0038093AF0380EEE7
:104180000E946220882341F09091AF03892F8E7F97
:1041900090FF81608093AF0389E30E9462208823AF
:1041A00041F09091AF03892F8D7F91FF82608093C2
:1041B000AF0382EE0E946220882341F09091AF030A
:1041C000892F8B7F92FF84608093AF0386EE0E94DD
:1041D0006220882341F09091AF03892F877F93FF5E
:1041E00088608093AF0383EE0E946220882341F0B1
:1041F0009091AF03892F8F7E94FF80618093AF03EE
:1042000085E30E946220882341F09091AF03892FBB
:104210008F7D95FF80628093AF0381E30E946220CF
:10422000882341F09091AF03892F8F7B96FF8064A4
:104230008093AF0381E10E946220882341F0909136
:10424000AF03892F97FB87F980588093AF03809144
:10425000AF030E94221F87E20E94622089838EE1C1
:104260000E946220882319F0B981B260B9838FE17E
:104270000E946220882319F029812460298380E22A
:104280000E946220882319F039813860398381E2E5
:104290000E946220882319F049814061498382E2AB
:1042A0000E946220882319F059815062598383E269
:1042B0000E946220882319F089818064898384E2C6
:1042C0000E9462208823B1F1998190689983898145
:1042D0000E94191F3981232F30E050E040E02983EC
:1042E0003A834B835C83CA01B9010F900F900F9002
:1042F0000F90DF91CF910C94591B8EE00E946220A9
:10430000882339F090914A02892F8B7F92FF846035
:1043100029CF80E10E94622090914A02882329F0EF
:10432000892F877F93FF88601DCF892F8E7F90FF15
:10433000816018CFA981A111CACF0E94151F282F13
:10434000CBCF0F900F900F900F90DF91CF910895EA
:1043500080914E0280FF12C06091060185E0689F47
:10436000B00111247595679575956795603871054D
:10437000A8F561157105A1F1862F089581FF09C087
:104380006091060185E0689FB001112475956795DD
:10439000EDCF6091060182FD0AC080914F02882313
:1043A000D1F09091050160910601891728F085E010
:1043B000689FB0011124DACF869FB001112485E0F7
:1043C000869F9001879F300D1124692F70E0C901ED
:1043D0000E94362CCBCF65E070E0CECF8FE70895FA
:1043E00081E0089580914E0280FF0CC0609104012D
:1043F00070E075956795759567956115710549F13B
:10440000862F089581FF06C06091040170E07595C4
:104410006795F3CF6091040182FD0BC090914F022C
:104420009923A1F06091030180910401961738F05F
:10443000682F70E06038710500F38FE70895899F59
:10444000C001112470E00E94362CF4CF61E070E0CE
:10445000D7CF81E00895803F31F40E94A821819553
:10446000809352020895813F19F40E94A821F8CF49
:10447000823F31F40E94A8218195809351020895D2
:10448000833F19F40E94A821F8CF893F29F40E94A4
:10449000F2218093530208958A3F21F40E94F22171
:1044A0008195F7CF8B3F31F40E94F2218195809363
:1044B000540208958C3F19F40E94F221F8CF843FF2
:1044C00031F4809150028160809350020895853FBD
:1044D00021F4809150028260F7CF863F21F48091D1
:1044E00050028460F1CF873F21F4809150028860B0
:1044F000EBCF883F21F4809150028061E5CF8D3F62
:1045000031F480914E02816080934E0208958E3F77
:1045100021F480914E028260F7CF8F3FB9F78091EE
:104520004E028460F1CF90915102803F41F480911E
:10453000520287FD10925202992371F00895813F33
:1045400029F4809152021816ACF3F6CF823F81F421
:1045500097FFF2CF10925102809152029091530234
:10456000892B90915402892B49F710924F0208959C
:10457000833F19F4191674F3DFCF893F39F4809122
:1045800053021816CCF610925302D6CF8A3F29F464
:104590008091530287FFD0CFF6CF8B3F39F48091C3
:1045A000540287FFC9CF10925402C6CF8C3F29F422
:1045B000809154021816BCF3BFCF843F31F4809130
:1045C00050028E7F80935002B7CF853F21F48091B7
:1045D00050028D7FF7CF863F21F4809150028B7F70
:1045E000F1CF873F21F480915002877FEBCF883F46
:1045F00021F4809150028F7EE5CF8D3F31F4809180
:104600004E028E7F80934E0297CF8E3F21F4809191
:104610004E028D7FF7CF8F3F09F08ECF80914E02F3
:104620008B7FF0CF80E592E00E94BA120E94B01F0B
:1046300090934D0280934C0208951F93CF93DF9384
:1046400000D000D000D0CDB7DEB780914C02909161
:104650004D020E94BC1FAC0180914F0220910701C6
:1046600030E0811106C0209108019AE0299F900155
:1046700011244217530788F020915102A091520251
:10468000A98310915302B0915402BE8321110FC02F
:104690009A2F912B9B2B09F0B2C026960FB6F89457
:1046A000DEBF0FBECDBFDF91CF911F9108958F3F29
:1046B00019F08F5F80934F02121624F40E94A821F4
:1046C000809351028091510287FF05C00E94A8216A
:1046D0008195809351022981121624F40E94A82109
:1046E000809352028091520287FF05C00E94A82148
:1046F00081958093520280915102882309F455C01C
:10470000309152023D83332309F44FC0282F880F84
:10471000330B440B550B29833A834B835C83CA01CB
:10472000B9010E94292B23E333E343E35FE3698369
:104730007A838B839C8369817A818B819C810E949F
:104740008D2B69837A838B839C8369817A818B81AA
:104750009C810E94F12A609351028D81082E000CE9
:10476000990BAA0BBB0B89839A83AB83BC83BC01D7
:10477000CD010E94292B23E333E343E35FE3698305
:104780007A838B839C8369817A818B819C810E944F
:104790008D2B69837A838B839C8369817A818B815A
:1047A0009C810E94F12A60935202111624F40E9407
:1047B000F221809353028091530287FF05C00E942B
:1047C000F2218195809353029E81191624F40E9450
:1047D000F221809354028091540287FF05C00E9409
:1047E000F22181958093540226960FB6F894DEBF8D
:1047F0000FBECDBFDF91CF911F910C9412238F3F3D
:1048000009F057CF68CF85E0E0E5F2E0DF011D92C7
:104810008A95E9F710924F0210924E020895809106
:1048200075020895CF93DF9300D00F92CDB7DEB716
:104830002091B503243019F523E029838A839B83D3
:104840002093E9008FEF9091E800815095FD06C01C
:1048500095ED9A95F1F700008111F5CF8091E80070
:1048600085FF0DC050E040E063E070E0CE010196AE
:104870000E9471268091E8008E778093E8000F9067
:104880000F900F90DF91CF910895CF93DF9300D0D9
:104890000F92CDB7DEB79C018091B503843031F51E
:1048A00082E08983205831093B832A8383E0809307
:1048B000E9008FEF9091E800815095FD06C095EDDD
:1048C0009A95F1F700008111F5CF8091E80085FFFE
:1048D0000DC050E040E063E070E0CE0101960E9420
:1048E00071268091E8008E778093E8000F900F90FA
:1048F0000F90DF91CF9108952091B5032430F1F40A
:1049000022E02093E9002FEF3091E800215035FD9F
:1049100006C035ED3A95F1F700002111F5CF209151
:10492000E80025FF0BC050E040E065E070E00E9429
:1049300071268091E8008E778093E8000895CF93E8
:10494000DF93D82FC92F8091B5038430F1F4909173
:1049500013019923E9F09091AF0397FF19C0809359
:10496000E9008FEF9091E800815095FD06C095E138
:104970009A95F1F700008111F5CF8091E80050E0A1
:1049800040E060E270E085FD1AC0DF91CF910895AC
:1049900081E08093E9008FEF9091E800815095FDD0
:1049A00006C095ED9A95F1F700008111F5CF809141
:1049B000E80085FFEACF50E040E068E070E08D2F2E
:1049C0009C2F0E9471268091E8008E778093E800EA
:1049D00080E2ED2FFC2FA5E5B2E001900D928A95C3
:1049E000E1F7D3CF8091B403811109C00E94F92768
:1049F0000E9456288091E20084608093E20008952E
:104A00001092B4030895089508950C947A1F42E01B
:104A100061EC81E00E94752742E061EC82E00E9437
:104A2000752742E061EC83E00E94752742E261EC69
:104A300084E00C9475278091B703893089F148F49C
:104A4000823009F494C0833009F44FC0813041F0C2
:104A500008958A3009F47BC08B3009F461C0089551
:104A60008091B603813A09F03FC08091E800877FCA
:104A70008093E8008091BA039091BB03892B61F485
:104A800060E285E592E070E00E94C0268091E80037
:104A90008B778093E800089560E090E080E0F3CFAA
:104AA0008091B603813201F58091BA039091BB03E6
:104AB000009711F00397C1F48091E800877F8093FD
:104AC000E8008091E80082FF0BC08091F1008093A4
:104AD00075028091E8008B778093E8000C94A927F9
:104AE0008091B5038111EDCF08958091B603813A8D
:104AF000D9F78091BA039091BB03892BA9F78091D4
:104B0000E800877F8093E8008091E80080FFFCCF79
:104B1000809113018093F1008091E8008E77DCCFC3
:104B20008091B603813201F78091BA039091BB0363
:104B3000892BD1F68091E800877F8093E8000E945E
:104B4000A9278091B803809313010C94BA17809120
:104B5000B603813249F68091E800877F8093E800B0
:104B60000E94A9278091B9038093760208958091CD
:104B7000B603813A09F0B8CF8091E800877F80932F
:104B8000E8008091E80080FFFCCF80917602C2CFE0
:104B900084B7877F84BF0FB6F894A8958091600092
:104BA000886180936000109260000FBE80E880935F
:104BB0006100109261000E94F2120E94F9270E9487
:104BC00056288091E20084608093E20078940E94ED
:104BD000D62A0E94F41289E091E00E949E128091F0
:104BE000B503853029F00E94FC120E946B12F7CFAA
:104BF0000E94271F8091B303882389F30E94551FC9
:104C0000882369F30E945B26EACF9C01DA01892F91
:104C1000992783309105C1F068F48130910509F43A
:104C200045C0029761F48DE690E029E83DE02D93C0
:104C30003C93089581329105E1F0829739F190E03B
:104C400080E030E020E0F3CFC9019927213059F00E
:104C50008230910559F0E5E8FDE0892B81F78491D8
:104C600090E09F01E4CFEDE6FDE0F9CFE9E5FDE05E
:104C7000F6CF643020F7E62FF0E0EE0FFF1FEA5C7E
:104C8000FE4F2081318189E090E0D1CF6430B8F6C9
:104C900070E0FB01EE0FFF1FE25DFE4F20813181CE
:104CA000665D7E4FFB01808190E0C1CF82E190E0A4
:104CB00026EF3DE0BCCF80E189BD82E189BD09B42A
:104CC00000FEFDCF8091D8008F7D8093D800809129
:104CD000E00082608093E0008091E00081FDFCCFE5
:104CE0000895AF92BF92CF92DF92FF920F931F93DE
:104CF000CF93DF936C01EB018A010E94C827F82E45
:104D0000811123C00115110539F0F80180819181CD
:104D1000C81BD90BC80ED91EB12CA12C2097A9F005
:104D20008091E80085FD22C08091E8008E77809315
:104D3000E80001151105A1F0F80180819181A80E0C
:104D4000B91EB182A08285E0F82E8F2DDF91CF9120
:104D50001F910F91FF90DF90CF90BF90AF9008957B
:104D60000E94C8278823D1F2F82EEFCFF601819157
:104D70006F018093F1002197FFEFAF1ABF0ACECFEA
:104D8000FC01CB012091BC033091BD0326173707EE
:104D900090F0009729F42091E8002E772093E80006
:104DA00040E0009751F4411108C08091E80082FF73
:104DB00031C080E00895C901F3CF2091B5032223CB
:104DC000A9F12530A9F12091E80023FD2DC0209103
:104DD000E80022FDEACF2091E80020FFE2CF3091E9
:104DE000F3002091F200009719F02830310558F0B7
:104DF00041E02830310509F040E02091E8002E77AD
:104E00002093E800CECF41914093F10001972F5FAE
:104E10003F4FE9CF8091B503882341F0853041F0C1
:104E20008091E80083FFC1CF81E0089582E008957A
:104E300083E00895FC01CB012091BC033091BD03B8
:104E40002617370790F0009729F42091E8002E7775
:104E50002093E80040E0009751F4411108C0809190
:104E6000E80082FF32C080E00895C901F3CF2091AD
:104E7000B5032223B1F12530B1F12091E80023FDE3
:104E80002EC02091E80022FDEACF2091E80020FF0B
:104E9000E2CF3091F3002091F200009719F0283012
:104EA000310558F041E02830310509F040E020910B
:104EB000E8002E772093E800CECF44914093F10094
:104EC000319601972F5F3F4FE8CF8091B50388233C
:104ED00041F0853041F08091E80083FFC0CF81E050
:104EE000089582E0089583E00895982F973028F080
:104EF0008F708093E90081E008959093E900242F5A
:104F0000762F50E0981731F07091EC002091ED0071
:104F10005091F00021FD02C09F5FE8CF3091EB007F
:104F20003E7F3093EB003091ED003D7F3093ED00FC
:104F30003091EB0031603093EB007093EC002093E4
:104F4000ED005093F0002091EE0027FDE5CF80E0CA
:104F500008958091B60387FF13C08091E80082FF17
:104F600006C08091E8008B778093E80004C08091B0
:104F7000B5038111F2CF08958091B5038823D9F349
:104F80008091E80080FFF8CF8091E8008E77ECCF29
:104F90002091E4003091E50095E6A9012091EC0014
:104FA000822F817020FF06C08091E80080FF06C03C
:104FB00080E008952091E80022FD1AC08091B50399
:104FC000882389F0853089F08091EB0085FD0FC042
:104FD0002091E4003091E50042175307F9F2915017
:104FE000E1F684E0089582E0089583E0089581E089
:104FF00008950E9467280E946F28E0EEF0E080810B
:1050000081608083E8EDF0E080818F77808319BC38
:10501000A7EDB0E08C918E7F8C9380818F7E808312
:105020001092B40308950F931F93CF93DF930E94C0
:1050300067280E946F28C8EDD0E088818F77888329
:1050400088818068888388818F7D888319BC1092CD
:10505000B5031092B1031092B3031092B20300EEA5
:1050600010E0F80180818B7F808388818160888354
:1050700042E060E080E00E947527E1EEF0E0808190
:105080008E7F8083E2EEF0E080818160808380818A
:1050900088608083F80180818E7F80838881806131
:1050A0008883DF91CF911F910F910895E8EDF0E093
:1050B00080818F7E8083E7EDF0E080818160808356
:1050C00084E082BF81E08093B4030C941328E8ED60
:1050D000F0E080818E7F80831092E200089510922C
:1050E000DA001092E10008951F920F920FB60F920E
:1050F00011242F933F934F935F936F937F938F93DD
:105100009F93AF93BF93EF93FF938091E10082FF52
:105110000BC08091E20082FF07C08091E1008B7F8D
:105120008093E1000E94D52A8091DA0080FF19C0A7
:105130008091D80080FF15C08091DA008E7F809327
:10514000DA008091D90080FF94C080E189BD82E1BE
:1051500089BD09B400FEFDCF81E08093B5030E94B4
:10516000F2248091E10080FF19C08091E20080FF6D
:1051700015C08091E2008E7F8093E2008091E20072
:1051800080618093E2008091D80080628093D80093
:1051900019BC85E08093B5030E9404258091E1004D
:1051A00084FF29C08091E20084FF25C080E189BD91
:1051B00082E189BD09B400FEFDCF8091D8008F7DCA
:1051C0008093D8008091E1008F7E8093E1008091F0
:1051D000E2008F7E8093E2008091E2008160809304
:1051E000E2008091B103882309F449C084E08093F0
:1051F000B5030E9405258091E10083FF29C08091BD
:10520000E20083FF25C08091E100877F8093E10069
:1052100082E08093B5031092B1038091E1008E7F0C
:105220008093E1008091E2008E7F8093E200809184
:10523000E20080618093E20042E060E080E00E9452
:1052400075278091F00088608093F0000E9403250C
:10525000FF91EF91BF91AF919F918F917F916F914E
:105260005F914F913F912F910F900FBE0F901F9024
:10527000189519BC1092B5030E94002572CF809139
:10528000E30087FD02C081E0B2CF83E0B0CF1F9280
:105290000F920FB60F9211242F933F934F935F936A
:1052A0006F937F938F939F93AF93BF93CF93DF932E
:1052B000EF93FF93D091E900DF708091EC00C82F4D
:1052C000C17080FDC0E81092E9008091F000877FF6
:1052D0008093F00078940E948B291092E9008091CD
:1052E000F00088608093F000CD2BCF70C093E90070
:1052F000FF91EF91DF91CF91BF91AF919F918F91EE
:105300007F916F915F914F913F912F910F900FBEC1
:105310000F901F9018951F93CF93DF93CDB7DEB7F3
:10532000AA970FB6F894DEBF0FBECDBF86EB93E011
:10533000FC0101962091F100208323E08E3B92072F
:10534000B9F70E941B258091E80083FF16C1809168
:10535000B6039091B7039A3008F00FC1E92FF0E03F
:10536000EB53F34D0C944A2C803881F0823809F0CD
:1053700004C18091BA038F708093E9008091EB00A3
:1053800085FB882780F91092E90006C08091B2035E
:105390009091B303911182609091E800977F909370
:1053A000E8008093F1001092F1008091E8008E7780
:1053B000E0C0882309F4CEC0823009F0DEC08091BD
:1053C000B8038111D1C08091BA038F7009F4D5C0A0
:1053D0008093E9002091EB0020FFC6C0933031F4A8
:1053E0008091EB0080628093EB00BEC09091EB0057
:1053F00090619093EB0021E030E001C0220F8A958C
:10540000EAF72093EA001092EA008091EB008860AE
:10541000EACF8111B2C01091B8031F778091E300E9
:105420008078812B8093E3008091E800877F8093D0
:10543000E8000E94A9278091E80080FFFCCF8091BE
:10544000E30080688093E30082E0111183E08093A1
:10545000B50393C08058823008F08FC08091B803A4
:105460009091B9038C3D23E09207A1F583E08A83F4
:105470008AE289834FB7F894DE01139620E03EE07C
:1054800051E2E32FF0E050935700E49120FF03C076
:10549000E295EF703F5FEF708E2F90E0EA30C0F042
:1054A000C7968D939D932F5F243159F74FBF8091FD
:1054B000E800877F8093E8006AE270E0CE01019601
:1054C0000E94C0268091E8008B778093E80055C049
:1054D000C096E7CFAE014F5F5F4F6091BA030E9465
:1054E0000526BC01892B09F448C08091E800877F1C
:1054F0008093E80089819A810E941A27E3CF80383F
:10550000E1F58091E800877F8093E8008091B10306
:105510008093F1004ACF811130C09091B80392304E
:1055200060F58091E800877F8093E8009093B10355
:105530000E94A9278091B103882311F084E005C05F
:105540008091E30087FDFACF81E08093B5030E944C
:10555000072513C08091B803813079F481E093303E
:1055600009F080E08093B3031092E9008091E80095
:10557000877F8093E8000E94A9278091E80083FF3D
:105580000AC08091E800877F8093E8008091EB005B
:1055900080628093EB00AA960FB6F894DEBF0FBE30
:1055A000CDBFDF91CF911F9108950895CF93809142
:1055B000B5038823A1F0C091E900CF709091EC0071
:1055C000892F817090FD80E8C82B1092E9008091AE
:1055D000E80083FD0E948B29CF70C093E900CF9132
:1055E00008950E94F82A6894B1110C94872B0895AD
:1055F0000E946C2B88F09F5798F0B92F9927B751CC
:10560000B0F0E1F0660F771F881F991F1AF0BA9566
:10561000C9F714C0B13091F00E94862BB1E0089513
:105620000C94862B672F782F8827B85F39F0B93F05
:10563000CCF3869577956795B395D9F73EF4909519
:105640008095709561957F4F8F4F9F4F0895E89497
:1056500009C097FB3EF490958095709561957F4FBA
:105660008F4F9F4F9923A9F0F92F96E9BB27939568
:10567000F695879577956795B795F111F8CFFAF478
:10568000BB0F11F460FF1BC06F5F7F4F8F4F9F4FA9
:1056900016C0882311F096E911C0772321F09EE807
:1056A000872F762F05C0662371F096E8862F70E06D
:1056B00060E02AF09A95660F771F881FDAF7880F47
:1056C0009695879597F9089557FD9058440F551F63
:1056D00059F05F3F71F04795880F97FB991F61F074
:1056E0009F3F79F087950895121613061406551FEB
:1056F000F2CF4695F1DF08C0161617061806991F57
:10570000F1CF86957105610508940895E894BB274B
:1057100066277727CB0197F908950E94A02B0C9458
:10572000112C0E94032C38F00E940A2C20F09523A3
:1057300011F00C94FA2B0C94002C11240C94872B50
:105740000E94642B70F3959FC1F3950F50E0551F95
:10575000629FF001729FBB27F00DB11D639FAA27C6
:10576000F00DB11DAA1F649F6627B00DA11D661F15
:10577000829F2227B00DA11D621F739FB00DA11D36
:10578000621F839FA00D611D221F749F3327A00DF0
:10579000611D231F849F600D211D822F762F6A2F8C
:1057A00011249F5750409AF0F1F088234AF0EE0FF1
:1057B000FF1FBB1F661F771F881F91505040A9F71E
:1057C0009E3F510580F00C94FA2B0C94872B5F3F81
:1057D000E4F3983ED4F3869577956795B795F7955A
:1057E000E7959F5FC1F7FE2B880F911D96958795D2
:1057F00097F9089597F99F6780E870E060E0089551
:105800009FEF80EC089500240A94161617061806D8
:105810000906089500240A941216130614060506B4
:105820000895092E0394000C11F4882352F0BB0F45
:1058300040F4BF2B11F460FF04C06F5F7F4F8F4FA8
:105840009F4F0895AA1BBB1B51E107C0AA1FBB1F96
:10585000A617B70710F0A61BB70B881F991F5A95FC
:10586000A9F780959095BC01CD01089597FB072E6F
:1058700016F4009407D077FD09D00E94222C07FC73
:1058800005D03EF4909581959F4F08957095619550
:105890007F4F0895EE0FFF1F0590F491E02D0994BE
:1058A000F999FECF92BD81BDF89A992780B50895E8
:1058B000A6E1B0E044E050E00C948A2CA8E1B0E00E
:1058C00042E050E00C948A2C262FF999FECF92BD2D
:1058D00081BDF89A019700B4021639F01FBA20BDB5
:1058E0000FB6F894FA9AF99A0FBE08950396272FE7
:1058F0000E94652C0E94642C252F0E94652C242F69
:105900000C94652C0196272F0E94652C0C94642C16
:10591000DC01CB01FC01F999FECF06C0F2BDE1BD6F
:10592000F89A319600B40D9241505040B8F708955E
:10593000F894FFCF8A088F08940899089E08A30856
:10594000A80800092509AD08B908BD08C108C5089F
:10595000C908CD08D108D508D908DD08E108E5084F
:10596000E908ED08F108F508F90865156515BD1594
:10597000BD1501161D169515951528169515F016C9
:10598000F0165B17951595156417B429D929BD2A0A
:0E599000D929BD2A092A2A2ABD2A7F2A8B2A54
:10599E00FF27022808140A321E0F249F247C244558
:1059AE00241224013536376667C2C6F7F6F5F49031
:1059BE0091929394959731323334404D3639C40ECB
:0E59CE00770E410E080E9B0DB40DCD0DE60DAB
:00000001FF
